{
  "_format": "hh-sol-artifact-1",
  "contractName": "ChallengeFactory",
  "sourceName": "contracts/ChallengeFactory.sol",
  "abi": [
    {
      "anonymous": false,
      "inputs": [
        {
          "indexed": true,
          "internalType": "address",
          "name": "creator",
          "type": "address"
        },
        {
          "indexed": true,
          "internalType": "address",
          "name": "challengeAddress",
          "type": "address"
        },
        {
          "indexed": false,
          "internalType": "string",
          "name": "description",
          "type": "string"
        },
        {
          "indexed": false,
          "internalType": "uint256",
          "name": "initialPool",
          "type": "uint256"
        }
      ],
      "name": "ChallengeCreated",
      "type": "event"
    },
    {
      "inputs": [
        {
          "internalType": "uint256",
          "name": "",
          "type": "uint256"
        }
      ],
      "name": "challenges",
      "outputs": [
        {
          "internalType": "address",
          "name": "",
          "type": "address"
        }
      ],
      "stateMutability": "view",
      "type": "function"
    },
    {
      "inputs": [
        {
          "internalType": "string",
          "name": "description",
          "type": "string"
        }
      ],
      "name": "createChallenge",
      "outputs": [
        {
          "internalType": "address",
          "name": "",
          "type": "address"
        }
      ],
      "stateMutability": "payable",
      "type": "function"
    },
    {
      "inputs": [
        {
          "internalType": "address",
          "name": "",
          "type": "address"
        },
        {
          "internalType": "uint256",
          "name": "",
          "type": "uint256"
        }
      ],
      "name": "creatorChallenges",
      "outputs": [
        {
          "internalType": "address",
          "name": "",
          "type": "address"
        }
      ],
      "stateMutability": "view",
      "type": "function"
    },
    {
      "inputs": [],
      "name": "getAllChallenges",
      "outputs": [
        {
          "internalType": "address[]",
          "name": "",
          "type": "address[]"
        }
      ],
      "stateMutability": "view",
      "type": "function"
    },
    {
      "inputs": [
        {
          "internalType": "address",
          "name": "creator",
          "type": "address"
        }
      ],
      "name": "getChallengesByCreator",
      "outputs": [
        {
          "internalType": "address[]",
          "name": "",
          "type": "address[]"
        }
      ],
      "stateMutability": "view",
      "type": "function"
    }
  ],
  "bytecode": "0x608060405234801561001057600080fd5b50612b84806100206000396000f3fe608060405260043610620000505760003560e01c80636bf78c2f1462000055578063829ef1ac146200008b5780638f1d377614620000bb578063b37a8f6514620000ff578063c85e64371462000143575b600080fd5b6200007360048036038101906200006d9190620006fc565b62000187565b60405162000082919062000792565b60405180910390f35b3480156200009857600080fd5b50620000a36200038a565b604051620000b291906200087d565b60405180910390f35b348015620000c857600080fd5b50620000e76004803603810190620000e19190620008dc565b6200041a565b604051620000f6919062000792565b60405180910390f35b3480156200010c57600080fd5b506200012b60048036038101906200012591906200093f565b6200045a565b6040516200013a919062000792565b60405180910390f35b3480156200015057600080fd5b506200016f600480360381019062000169919062000986565b620004a9565b6040516200017e91906200087d565b60405180910390f35b6000803411620001ce576040517f08c379a0000000000000000000000000000000000000000000000000000000008152600401620001c59062000a3f565b60405180910390fd5b6000343384604051620001e19062000578565b620001ee92919062000ad9565b6040518091039082f09050801580156200020c573d6000803e3d6000fd5b50905060008190506000819080600181540180825580915050600190039060005260206000200160009091909190916101000a81548173ffffffffffffffffffffffffffffffffffffffff021916908373ffffffffffffffffffffffffffffffffffffffff160217905550600160003373ffffffffffffffffffffffffffffffffffffffff1673ffffffffffffffffffffffffffffffffffffffff168152602001908152602001600020819080600181540180825580915050600190039060005260206000200160009091909190916101000a81548173ffffffffffffffffffffffffffffffffffffffff021916908373ffffffffffffffffffffffffffffffffffffffff1602179055508073ffffffffffffffffffffffffffffffffffffffff163373ffffffffffffffffffffffffffffffffffffffff167f9bd6571b4f889bc74127e47918fe5ab8f89748f28a93ebdec392aca3b379847a86346040516200037892919062000b1e565b60405180910390a38092505050919050565b606060008054806020026020016040519081016040528092919081815260200182805480156200041057602002820191906000526020600020905b8160009054906101000a900473ffffffffffffffffffffffffffffffffffffffff1673ffffffffffffffffffffffffffffffffffffffff1681526020019060010190808311620003c5575b5050505050905090565b600081815481106200042b57600080fd5b906000526020600020016000915054906101000a900473ffffffffffffffffffffffffffffffffffffffff1681565b600160205281600052604060002081815481106200047757600080fd5b906000526020600020016000915091509054906101000a900473ffffffffffffffffffffffffffffffffffffffff1681565b6060600160008373ffffffffffffffffffffffffffffffffffffffff1673ffffffffffffffffffffffffffffffffffffffff1681526020019081526020016000208054806020026020016040519081016040528092919081815260200182805480156200056c57602002820191906000526020600020905b8160009054906101000a900473ffffffffffffffffffffffffffffffffffffffff1673ffffffffffffffffffffffffffffffffffffffff168152602001906001019080831162000521575b50505050509050919050565b611ffc8062000b5383390190565b6000604051905090565b600080fd5b600080fd5b600080fd5b600080fd5b6000601f19601f8301169050919050565b7f4e487b7100000000000000000000000000000000000000000000000000000000600052604160045260246000fd5b620005ef82620005a4565b810181811067ffffffffffffffff82111715620006115762000610620005b5565b5b80604052505050565b60006200062662000586565b9050620006348282620005e4565b919050565b600067ffffffffffffffff821115620006575762000656620005b5565b5b6200066282620005a4565b9050602081019050919050565b82818337600083830152505050565b6000620006956200068f8462000639565b6200061a565b905082815260208101848484011115620006b457620006b36200059f565b5b620006c18482856200066f565b509392505050565b600082601f830112620006e157620006e06200059a565b5b8135620006f38482602086016200067e565b91505092915050565b60006020828403121562000715576200071462000590565b5b600082013567ffffffffffffffff81111562000736576200073562000595565b5b6200074484828501620006c9565b91505092915050565b600073ffffffffffffffffffffffffffffffffffffffff82169050919050565b60006200077a826200074d565b9050919050565b6200078c816200076d565b82525050565b6000602082019050620007a9600083018462000781565b92915050565b600081519050919050565b600082825260208201905092915050565b6000819050602082019050919050565b620007e6816200076d565b82525050565b6000620007fa8383620007db565b60208301905092915050565b6000602082019050919050565b60006200082082620007af565b6200082c8185620007ba565b93506200083983620007cb565b8060005b8381101562000870578151620008548882620007ec565b9750620008618362000806565b9250506001810190506200083d565b5085935050505092915050565b6000602082019050818103600083015262000899818462000813565b905092915050565b6000819050919050565b620008b681620008a1565b8114620008c257600080fd5b50565b600081359050620008d681620008ab565b92915050565b600060208284031215620008f557620008f462000590565b5b60006200090584828501620008c5565b91505092915050565b62000919816200076d565b81146200092557600080fd5b50565b60008135905062000939816200090e565b92915050565b6000806040838503121562000959576200095862000590565b5b6000620009698582860162000928565b92505060206200097c85828601620008c5565b9150509250929050565b6000602082840312156200099f576200099e62000590565b5b6000620009af8482850162000928565b91505092915050565b600082825260208201905092915050565b7f496e697469616c20706f6f6c206d75737420626520677265617465722074686160008201527f6e20300000000000000000000000000000000000000000000000000000000000602082015250565b600062000a27602383620009b8565b915062000a3482620009c9565b604082019050919050565b6000602082019050818103600083015262000a5a8162000a18565b9050919050565b600081519050919050565b60005b8381101562000a8c57808201518184015260208101905062000a6f565b60008484015250505050565b600062000aa58262000a61565b62000ab18185620009b8565b935062000ac381856020860162000a6c565b62000ace81620005a4565b840191505092915050565b600060408201905062000af0600083018562000781565b818103602083015262000b04818462000a98565b90509392505050565b62000b1881620008a1565b82525050565b6000604082019050818103600083015262000b3a818562000a98565b905062000b4b602083018462000b0d565b939250505056fe608060405260405162001ffc38038062001ffc833981810160405281019062000029919062000289565b816000806101000a81548173ffffffffffffffffffffffffffffffffffffffff021916908373ffffffffffffffffffffffffffffffffffffffff16021790555080600190816200007a91906200053a565b503460028190555034600381905550505062000621565b6000604051905090565b600080fd5b600080fd5b600073ffffffffffffffffffffffffffffffffffffffff82169050919050565b6000620000d282620000a5565b9050919050565b620000e481620000c5565b8114620000f057600080fd5b50565b6000815190506200010481620000d9565b92915050565b600080fd5b600080fd5b6000601f19601f8301169050919050565b7f4e487b7100000000000000000000000000000000000000000000000000000000600052604160045260246000fd5b6200015f8262000114565b810181811067ffffffffffffffff8211171562000181576200018062000125565b5b80604052505050565b60006200019662000091565b9050620001a4828262000154565b919050565b600067ffffffffffffffff821115620001c757620001c662000125565b5b620001d28262000114565b9050602081019050919050565b60005b83811015620001ff578082015181840152602081019050620001e2565b60008484015250505050565b6000620002226200021c84620001a9565b6200018a565b9050828152602081018484840111156200024157620002406200010f565b5b6200024e848285620001df565b509392505050565b600082601f8301126200026e576200026d6200010a565b5b8151620002808482602086016200020b565b91505092915050565b60008060408385031215620002a357620002a26200009b565b5b6000620002b385828601620000f3565b925050602083015167ffffffffffffffff811115620002d757620002d6620000a0565b5b620002e58582860162000256565b9150509250929050565b600081519050919050565b7f4e487b7100000000000000000000000000000000000000000000000000000000600052602260045260246000fd5b600060028204905060018216806200034257607f821691505b602082108103620003585762000357620002fa565b5b50919050565b60008190508160005260206000209050919050565b60006020601f8301049050919050565b600082821b905092915050565b600060088302620003c27fffffffffffffffffffffffffffffffffffffffffffffffffffffffffffffffff8262000383565b620003ce868362000383565b95508019841693508086168417925050509392505050565b6000819050919050565b6000819050919050565b60006200041b620004156200040f84620003e6565b620003f0565b620003e6565b9050919050565b6000819050919050565b6200043783620003fa565b6200044f620004468262000422565b84845462000390565b825550505050565b600090565b6200046662000457565b620004738184846200042c565b505050565b5b818110156200049b576200048f6000826200045c565b60018101905062000479565b5050565b601f821115620004ea57620004b4816200035e565b620004bf8462000373565b81016020851015620004cf578190505b620004e7620004de8562000373565b83018262000478565b50505b505050565b600082821c905092915050565b60006200050f60001984600802620004ef565b1980831691505092915050565b60006200052a8383620004fc565b9150826002028217905092915050565b6200054582620002ef565b67ffffffffffffffff81111562000561576200056062000125565b5b6200056d825462000329565b6200057a8282856200049f565b600060209050601f831160018114620005b257600084156200059d578287015190505b620005a985826200051c565b86555062000619565b601f198416620005c2866200035e565b60005b82811015620005ec57848901518255600182019150602085019450602081019050620005c5565b868310156200060c578489015162000608601f891682620004fc565b8355505b6001600288020188555050505b505050505050565b6119cb80620006316000396000f3fe608060405234801561001057600080fd5b50600436106100a95760003560e01c806318a3c94c1161007157806318a3c94c146101585780635d725ee6146101745780637284e4161461019057806398d0c518146101ae578063b14d37c0146101ca578063c2939c19146101e8576100a9565b806302d05d3f146100ae57806306fbedbe146100cc57806309e69ede146100ea5780630dd8d31c1461011c57806312fa6feb1461013a575b600080fd5b6100b66101f2565b6040516100c39190610e86565b60405180910390f35b6100d4610216565b6040516100e19190610eba565b60405180910390f35b61010460048036038101906100ff9190610f15565b61021b565b60405161011393929190610fed565b60405180910390f35b6101246102e7565b6040516101319190610eba565b60405180910390f35b6101426102ed565b60405161014f919061102b565b60405180910390f35b610172600480360381019061016d9190610f15565b610300565b005b61018e60048036038101906101899190610f15565b6105bd565b005b6101986109d4565b6040516101a59190611046565b60405180910390f35b6101c860048036038101906101c3919061119d565b610a62565b005b6101d2610c3e565b6040516101df9190610eba565b60405180910390f35b6101f0610c44565b005b60008054906101000a900473ffffffffffffffffffffffffffffffffffffffff1681565b601481565b60046020528060005260406000206000915090508060000160009054906101000a900460ff16908060000160019054906101000a900460ff169080600101805461026490611215565b80601f016020809104026020016040519081016040528092919081815260200182805461029090611215565b80156102dd5780601f106102b2576101008083540402835291602001916102dd565b820191906000526020600020905b8154815290600101906020018083116102c057829003601f168201915b5050505050905083565b60025481565b600560009054906101000a900460ff1681565b60008054906101000a900473ffffffffffffffffffffffffffffffffffffffff1673ffffffffffffffffffffffffffffffffffffffff163373ffffffffffffffffffffffffffffffffffffffff161461038e576040517f08c379a0000000000000000000000000000000000000000000000000000000008152600401610385906112b8565b60405180910390fd5b600560009054906101000a900460ff16156103de576040517f08c379a00000000000000000000000000000000000000000000000000000000081526004016103d590611324565b60405180910390fd5b600460008273ffffffffffffffffffffffffffffffffffffffff1673ffffffffffffffffffffffffffffffffffffffff16815260200190815260200160002060000160009054906101000a900460ff1661046d576040517f08c379a000000000000000000000000000000000000000000000000000000000815260040161046490611390565b60405180910390fd5b600460008273ffffffffffffffffffffffffffffffffffffffff1673ffffffffffffffffffffffffffffffffffffffff16815260200190815260200160002060000160019054906101000a900460ff16156104fd576040517f08c379a00000000000000000000000000000000000000000000000000000000081526004016104f4906113fc565b60405180910390fd5b600460008273ffffffffffffffffffffffffffffffffffffffff1673ffffffffffffffffffffffffffffffffffffffff168152602001908152602001600020600080820160006101000a81549060ff02191690556000820160016101000a81549060ff02191690556001820160006105759190610de8565b50508073ffffffffffffffffffffffffffffffffffffffff167f214bde2547f2e23feaf0843accb15b151486c58776c68d0ae431775baba5b7b460405160405180910390a250565b60008054906101000a900473ffffffffffffffffffffffffffffffffffffffff1673ffffffffffffffffffffffffffffffffffffffff163373ffffffffffffffffffffffffffffffffffffffff161461064b576040517f08c379a0000000000000000000000000000000000000000000000000000000008152600401610642906112b8565b60405180910390fd5b600560009054906101000a900460ff161561069b576040517f08c379a000000000000000000000000000000000000000000000000000000000815260040161069290611324565b60405180910390fd5b600460008273ffffffffffffffffffffffffffffffffffffffff1673ffffffffffffffffffffffffffffffffffffffff16815260200190815260200160002060000160009054906101000a900460ff1661072a576040517f08c379a000000000000000000000000000000000000000000000000000000000815260040161072190611390565b60405180910390fd5b600460008273ffffffffffffffffffffffffffffffffffffffff1673ffffffffffffffffffffffffffffffffffffffff16815260200190815260200160002060000160019054906101000a900460ff16156107ba576040517f08c379a00000000000000000000000000000000000000000000000000000000081526004016107b1906113fc565b60405180910390fd5b6000606460146002546107cd919061144b565b6107d791906114bc565b90506000811161081c576040517f08c379a000000000000000000000000000000000000000000000000000000000815260040161081390611539565b60405180910390fd5b806003541015610861576040517f08c379a0000000000000000000000000000000000000000000000000000000008152600401610858906115a5565b60405180910390fd5b6001600460008473ffffffffffffffffffffffffffffffffffffffff1673ffffffffffffffffffffffffffffffffffffffff16815260200190815260200160002060000160016101000a81548160ff02191690831515021790555080600360008282546108ce91906115c5565b9250508190555060008273ffffffffffffffffffffffffffffffffffffffff16826040516108fb9061162a565b60006040518083038185875af1925050503d8060008114610938576040519150601f19603f3d011682016040523d82523d6000602084013e61093d565b606091505b5050905080610981576040517f08c379a00000000000000000000000000000000000000000000000000000000081526004016109789061168b565b60405180910390fd5b8273ffffffffffffffffffffffffffffffffffffffff167f86d3b949fed350f69e2be9d17ea89b52e1f17b86b267d5f9c370d2b3c3273dd0836040516109c79190610eba565b60405180910390a2505050565b600180546109e190611215565b80601f0160208091040260200160405190810160405280929190818152602001828054610a0d90611215565b8015610a5a5780601f10610a2f57610100808354040283529160200191610a5a565b820191906000526020600020905b815481529060010190602001808311610a3d57829003601f168201915b505050505081565b600560009054906101000a900460ff1615610ab2576040517f08c379a0000000000000000000000000000000000000000000000000000000008152600401610aa990611324565b60405180910390fd5b600460003373ffffffffffffffffffffffffffffffffffffffff1673ffffffffffffffffffffffffffffffffffffffff16815260200190815260200160002060000160009054906101000a900460ff1615610b42576040517f08c379a0000000000000000000000000000000000000000000000000000000008152600401610b39906116f7565b60405180910390fd5b6001600460003373ffffffffffffffffffffffffffffffffffffffff1673ffffffffffffffffffffffffffffffffffffffff16815260200190815260200160002060000160006101000a81548160ff02191690831515021790555080600460003373ffffffffffffffffffffffffffffffffffffffff1673ffffffffffffffffffffffffffffffffffffffff1681526020019081526020016000206001019081610bec91906118c3565b503373ffffffffffffffffffffffffffffffffffffffff167fa19e2af56a57a1c86731d90c9dbcf8398f2efadff08b227f5eea94ea96f741f182604051610c339190611046565b60405180910390a250565b60035481565b60008054906101000a900473ffffffffffffffffffffffffffffffffffffffff1673ffffffffffffffffffffffffffffffffffffffff163373ffffffffffffffffffffffffffffffffffffffff1614610cd2576040517f08c379a0000000000000000000000000000000000000000000000000000000008152600401610cc9906112b8565b60405180910390fd5b600560009054906101000a900460ff1615610d22576040517f08c379a0000000000000000000000000000000000000000000000000000000008152600401610d1990611324565b60405180910390fd5b6001600560006101000a81548160ff02191690831515021790555060006003541115610dba5760008054906101000a900473ffffffffffffffffffffffffffffffffffffffff1673ffffffffffffffffffffffffffffffffffffffff166108fc6003549081150290604051600060405180830381858888f19350505050158015610db0573d6000803e3d6000fd5b5060006003819055505b7fc5961695881161199dba611aa0ff806e5acbee3be970344f5db99080d957a27a60405160405180910390a1565b508054610df490611215565b6000825580601f10610e065750610e25565b601f016020900490600052602060002090810190610e249190610e28565b5b50565b5b80821115610e41576000816000905550600101610e29565b5090565b600073ffffffffffffffffffffffffffffffffffffffff82169050919050565b6000610e7082610e45565b9050919050565b610e8081610e65565b82525050565b6000602082019050610e9b6000830184610e77565b92915050565b6000819050919050565b610eb481610ea1565b82525050565b6000602082019050610ecf6000830184610eab565b92915050565b6000604051905090565b600080fd5b600080fd5b610ef281610e65565b8114610efd57600080fd5b50565b600081359050610f0f81610ee9565b92915050565b600060208284031215610f2b57610f2a610edf565b5b6000610f3984828501610f00565b91505092915050565b60008115159050919050565b610f5781610f42565b82525050565b600081519050919050565b600082825260208201905092915050565b60005b83811015610f97578082015181840152602081019050610f7c565b60008484015250505050565b6000601f19601f8301169050919050565b6000610fbf82610f5d565b610fc98185610f68565b9350610fd9818560208601610f79565b610fe281610fa3565b840191505092915050565b60006060820190506110026000830186610f4e565b61100f6020830185610f4e565b81810360408301526110218184610fb4565b9050949350505050565b60006020820190506110406000830184610f4e565b92915050565b600060208201905081810360008301526110608184610fb4565b905092915050565b600080fd5b600080fd5b7f4e487b7100000000000000000000000000000000000000000000000000000000600052604160045260246000fd5b6110aa82610fa3565b810181811067ffffffffffffffff821117156110c9576110c8611072565b5b80604052505050565b60006110dc610ed5565b90506110e882826110a1565b919050565b600067ffffffffffffffff82111561110857611107611072565b5b61111182610fa3565b9050602081019050919050565b82818337600083830152505050565b600061114061113b846110ed565b6110d2565b90508281526020810184848401111561115c5761115b61106d565b5b61116784828561111e565b509392505050565b600082601f83011261118457611183611068565b5b813561119484826020860161112d565b91505092915050565b6000602082840312156111b3576111b2610edf565b5b600082013567ffffffffffffffff8111156111d1576111d0610ee4565b5b6111dd8482850161116f565b91505092915050565b7f4e487b7100000000000000000000000000000000000000000000000000000000600052602260045260246000fd5b6000600282049050600182168061122d57607f821691505b6020821081036112405761123f6111e6565b5b50919050565b7f4f6e6c792063726561746f722063616e2063616c6c20746869732066756e637460008201527f696f6e0000000000000000000000000000000000000000000000000000000000602082015250565b60006112a2602383610f68565b91506112ad82611246565b604082019050919050565b600060208201905081810360008301526112d181611295565b9050919050565b7f4368616c6c656e67652068617320656e64656400000000000000000000000000600082015250565b600061130e601383610f68565b9150611319826112d8565b602082019050919050565b6000602082019050818103600083015261133d81611301565b9050919050565b7f4e6f7420636f6d706c6574656400000000000000000000000000000000000000600082015250565b600061137a600d83610f68565b915061138582611344565b602082019050919050565b600060208201905081810360008301526113a98161136d565b9050919050565b7f416c726561647920617070726f76656400000000000000000000000000000000600082015250565b60006113e6601083610f68565b91506113f1826113b0565b602082019050919050565b60006020820190508181036000830152611415816113d9565b9050919050565b7f4e487b7100000000000000000000000000000000000000000000000000000000600052601160045260246000fd5b600061145682610ea1565b915061146183610ea1565b925082820261146f81610ea1565b915082820484148315176114865761148561141c565b5b5092915050565b7f4e487b7100000000000000000000000000000000000000000000000000000000600052601260045260246000fd5b60006114c782610ea1565b91506114d283610ea1565b9250826114e2576114e161148d565b5b828204905092915050565b7f52657761726420616d6f756e74206973207a65726f0000000000000000000000600082015250565b6000611523601583610f68565b915061152e826114ed565b602082019050919050565b6000602082019050818103600083015261155281611516565b9050919050565b7f496e73756666696369656e742072656d61696e696e6720706f6f6c0000000000600082015250565b600061158f601b83610f68565b915061159a82611559565b602082019050919050565b600060208201905081810360008301526115be81611582565b9050919050565b60006115d082610ea1565b91506115db83610ea1565b92508282039050818111156115f3576115f261141c565b5b92915050565b600081905092915050565b50565b60006116146000836115f9565b915061161f82611604565b600082019050919050565b600061163582611607565b9150819050919050565b7f526577617264207472616e73666572206661696c656400000000000000000000600082015250565b6000611675601683610f68565b91506116808261163f565b602082019050919050565b600060208201905081810360008301526116a481611668565b9050919050565b7f416c726561647920636f6d706c65746564000000000000000000000000000000600082015250565b60006116e1601183610f68565b91506116ec826116ab565b602082019050919050565b60006020820190508181036000830152611710816116d4565b9050919050565b60008190508160005260206000209050919050565b60006020601f8301049050919050565b600082821b905092915050565b6000600883026117797fffffffffffffffffffffffffffffffffffffffffffffffffffffffffffffffff8261173c565b611783868361173c565b95508019841693508086168417925050509392505050565b6000819050919050565b60006117c06117bb6117b684610ea1565b61179b565b610ea1565b9050919050565b6000819050919050565b6117da836117a5565b6117ee6117e6826117c7565b848454611749565b825550505050565b600090565b6118036117f6565b61180e8184846117d1565b505050565b5b81811015611832576118276000826117fb565b600181019050611814565b5050565b601f8211156118775761184881611717565b6118518461172c565b81016020851015611860578190505b61187461186c8561172c565b830182611813565b50505b505050565b600082821c905092915050565b600061189a6000198460080261187c565b1980831691505092915050565b60006118b38383611889565b9150826002028217905092915050565b6118cc82610f5d565b67ffffffffffffffff8111156118e5576118e4611072565b5b6118ef8254611215565b6118fa828285611836565b600060209050601f83116001811461192d576000841561191b578287015190505b61192585826118a7565b86555061198d565b601f19841661193b86611717565b60005b828110156119635784890151825560018201915060208501945060208101905061193e565b86831015611980578489015161197c601f891682611889565b8355505b6001600288020188555050505b50505050505056fea2646970667358221220a6d11b1ba490f18ec5382666b5c5e68e7572123b16b5f5f4e834c12761564ea564736f6c63430008140033a2646970667358221220ec9fc9af01f0ac651a60aabf9f06f2e4ee16f0b482668c1e53ff294129de19e464736f6c63430008140033",
  "linkReferences": {},
  "deployedLinkReferences": {}
}